:100000000C942D000C946D000C946D000C946D00FC
:100010000C946D000C946D000C946D000C946D00AC
:100020000C946D000C946D000C946D000C946D009C
:100030000C946D000C946D000C946D000C946D008C
:100040000C946D000C946D000C946D000C946D007C
:100050000C946D0000600061800011241FBECFE58C
:10006000D8E0DEBFCDBFE4E5F0E040E017C0B591D9
:10007000A59135912591059107FD0CC0959185912C
:10008000EF01F92FE82F05900D92A217B307D9F7CA
:10009000FE0104C01D92A217B307E1F7E935F4078A
:0E00A00031F70E9457000C945500F894FFCFE2
:1000AE000E9462008091600091E0980F9093600032
:0600BE000E946900F7CF6B
:0E00C40087B3806B87BB8DB183658DB90895BE
:0800D2008FB9779BFECF089562
:0400DA000C94000082
:00000001FF
